{
  "_format": "hh-sol-artifact-1",
  "contractName": "Roster",
  "sourceName": "contracts/Roster.sol",
  "abi": [
    {
      "inputs": [],
      "stateMutability": "nonpayable",
      "type": "constructor"
    },
    {
      "anonymous": false,
      "inputs": [
        {
          "indexed": true,
          "internalType": "address",
          "name": "owner",
          "type": "address"
        },
        {
          "indexed": true,
          "internalType": "address",
          "name": "approved",
          "type": "address"
        },
        {
          "indexed": true,
          "internalType": "uint256",
          "name": "tokenId",
          "type": "uint256"
        }
      ],
      "name": "Approval",
      "type": "event"
    },
    {
      "anonymous": false,
      "inputs": [
        {
          "indexed": true,
          "internalType": "address",
          "name": "owner",
          "type": "address"
        },
        {
          "indexed": true,
          "internalType": "address",
          "name": "operator",
          "type": "address"
        },
        {
          "indexed": false,
          "internalType": "bool",
          "name": "approved",
          "type": "bool"
        }
      ],
      "name": "ApprovalForAll",
      "type": "event"
    },
    {
      "anonymous": false,
      "inputs": [
        {
          "indexed": true,
          "internalType": "address",
          "name": "previousOwner",
          "type": "address"
        },
        {
          "indexed": true,
          "internalType": "address",
          "name": "newOwner",
          "type": "address"
        }
      ],
      "name": "OwnershipTransferred",
      "type": "event"
    },
    {
      "anonymous": false,
      "inputs": [
        {
          "indexed": true,
          "internalType": "address",
          "name": "from",
          "type": "address"
        },
        {
          "indexed": true,
          "internalType": "address",
          "name": "to",
          "type": "address"
        },
        {
          "indexed": true,
          "internalType": "uint256",
          "name": "tokenId",
          "type": "uint256"
        }
      ],
      "name": "Transfer",
      "type": "event"
    },
    {
      "inputs": [
        {
          "internalType": "uint256",
          "name": "",
          "type": "uint256"
        }
      ],
      "name": "NftHolderChampion",
      "outputs": [
        {
          "internalType": "string",
          "name": "name",
          "type": "string"
        },
        {
          "internalType": "uint256",
          "name": "health",
          "type": "uint256"
        },
        {
          "internalType": "uint256",
          "name": "maxHealth",
          "type": "uint256"
        },
        {
          "internalType": "uint256",
          "name": "attackPower",
          "type": "uint256"
        },
        {
          "internalType": "uint256",
          "name": "healPower",
          "type": "uint256"
        },
        {
          "components": [
            {
              "internalType": "string",
              "name": "idle",
              "type": "string"
            },
            {
              "internalType": "string",
              "name": "attack",
              "type": "string"
            },
            {
              "internalType": "string",
              "name": "hurt",
              "type": "string"
            },
            {
              "internalType": "string",
              "name": "dying",
              "type": "string"
            },
            {
              "internalType": "string",
              "name": "dead",
              "type": "string"
            }
          ],
          "internalType": "struct GifStatus",
          "name": "gifUris",
          "type": "tuple"
        }
      ],
      "stateMutability": "view",
      "type": "function"
    },
    {
      "inputs": [
        {
          "internalType": "address",
          "name": "",
          "type": "address"
        }
      ],
      "name": "SelectedChampion",
      "outputs": [
        {
          "internalType": "uint256",
          "name": "",
          "type": "uint256"
        }
      ],
      "stateMutability": "view",
      "type": "function"
    },
    {
      "inputs": [
        {
          "internalType": "uint256",
          "name": "_championIndex",
          "type": "uint256"
        }
      ],
      "name": "addChampionToRoster",
      "outputs": [],
      "stateMutability": "nonpayable",
      "type": "function"
    },
    {
      "inputs": [
        {
          "internalType": "address",
          "name": "to",
          "type": "address"
        },
        {
          "internalType": "uint256",
          "name": "tokenId",
          "type": "uint256"
        }
      ],
      "name": "approve",
      "outputs": [],
      "stateMutability": "nonpayable",
      "type": "function"
    },
    {
      "inputs": [
        {
          "internalType": "address",
          "name": "owner",
          "type": "address"
        }
      ],
      "name": "balanceOf",
      "outputs": [
        {
          "internalType": "uint256",
          "name": "",
          "type": "uint256"
        }
      ],
      "stateMutability": "view",
      "type": "function"
    },
    {
      "inputs": [
        {
          "internalType": "uint256",
          "name": "tokenId",
          "type": "uint256"
        },
        {
          "internalType": "uint256",
          "name": "damage",
          "type": "uint256"
        }
      ],
      "name": "damageChampion",
      "outputs": [],
      "stateMutability": "nonpayable",
      "type": "function"
    },
    {
      "inputs": [
        {
          "internalType": "uint256",
          "name": "tokenId",
          "type": "uint256"
        }
      ],
      "name": "getApproved",
      "outputs": [
        {
          "internalType": "address",
          "name": "",
          "type": "address"
        }
      ],
      "stateMutability": "view",
      "type": "function"
    },
    {
      "inputs": [
        {
          "internalType": "uint256",
          "name": "recordId",
          "type": "uint256"
        }
      ],
      "name": "getNFTChampion",
      "outputs": [
        {
          "components": [
            {
              "internalType": "string",
              "name": "name",
              "type": "string"
            },
            {
              "internalType": "uint256",
              "name": "health",
              "type": "uint256"
            },
            {
              "internalType": "uint256",
              "name": "maxHealth",
              "type": "uint256"
            },
            {
              "internalType": "uint256",
              "name": "attackPower",
              "type": "uint256"
            },
            {
              "internalType": "uint256",
              "name": "healPower",
              "type": "uint256"
            },
            {
              "components": [
                {
                  "internalType": "string",
                  "name": "idle",
                  "type": "string"
                },
                {
                  "internalType": "string",
                  "name": "attack",
                  "type": "string"
                },
                {
                  "internalType": "string",
                  "name": "hurt",
                  "type": "string"
                },
                {
                  "internalType": "string",
                  "name": "dying",
                  "type": "string"
                },
                {
                  "internalType": "string",
                  "name": "dead",
                  "type": "string"
                }
              ],
              "internalType": "struct GifStatus",
              "name": "gifUris",
              "type": "tuple"
            }
          ],
          "internalType": "struct Champion",
          "name": "",
          "type": "tuple"
        }
      ],
      "stateMutability": "view",
      "type": "function"
    },
    {
      "inputs": [
        {
          "internalType": "address",
          "name": "sender",
          "type": "address"
        }
      ],
      "name": "getRosterByAddress",
      "outputs": [
        {
          "internalType": "uint256[]",
          "name": "",
          "type": "uint256[]"
        }
      ],
      "stateMutability": "view",
      "type": "function"
    },
    {
      "inputs": [
        {
          "internalType": "address",
          "name": "sender",
          "type": "address"
        }
      ],
      "name": "getSelectedChampion",
      "outputs": [
        {
          "internalType": "uint256",
          "name": "",
          "type": "uint256"
        }
      ],
      "stateMutability": "view",
      "type": "function"
    },
    {
      "inputs": [],
      "name": "getUserRoster",
      "outputs": [
        {
          "internalType": "uint256[]",
          "name": "",
          "type": "uint256[]"
        }
      ],
      "stateMutability": "view",
      "type": "function"
    },
    {
      "inputs": [
        {
          "internalType": "uint256",
          "name": "tokenId",
          "type": "uint256"
        }
      ],
      "name": "healChampion",
      "outputs": [],
      "stateMutability": "nonpayable",
      "type": "function"
    },
    {
      "inputs": [
        {
          "internalType": "address",
          "name": "owner",
          "type": "address"
        },
        {
          "internalType": "address",
          "name": "operator",
          "type": "address"
        }
      ],
      "name": "isApprovedForAll",
      "outputs": [
        {
          "internalType": "bool",
          "name": "",
          "type": "bool"
        }
      ],
      "stateMutability": "view",
      "type": "function"
    },
    {
      "inputs": [],
      "name": "name",
      "outputs": [
        {
          "internalType": "string",
          "name": "",
          "type": "string"
        }
      ],
      "stateMutability": "view",
      "type": "function"
    },
    {
      "inputs": [],
      "name": "owner",
      "outputs": [
        {
          "internalType": "address",
          "name": "",
          "type": "address"
        }
      ],
      "stateMutability": "view",
      "type": "function"
    },
    {
      "inputs": [
        {
          "internalType": "uint256",
          "name": "tokenId",
          "type": "uint256"
        }
      ],
      "name": "ownerOf",
      "outputs": [
        {
          "internalType": "address",
          "name": "",
          "type": "address"
        }
      ],
      "stateMutability": "view",
      "type": "function"
    },
    {
      "inputs": [],
      "name": "renounceOwnership",
      "outputs": [],
      "stateMutability": "nonpayable",
      "type": "function"
    },
    {
      "inputs": [
        {
          "internalType": "address",
          "name": "from",
          "type": "address"
        },
        {
          "internalType": "address",
          "name": "to",
          "type": "address"
        },
        {
          "internalType": "uint256",
          "name": "tokenId",
          "type": "uint256"
        }
      ],
      "name": "safeTransferFrom",
      "outputs": [],
      "stateMutability": "nonpayable",
      "type": "function"
    },
    {
      "inputs": [
        {
          "internalType": "address",
          "name": "from",
          "type": "address"
        },
        {
          "internalType": "address",
          "name": "to",
          "type": "address"
        },
        {
          "internalType": "uint256",
          "name": "tokenId",
          "type": "uint256"
        },
        {
          "internalType": "bytes",
          "name": "_data",
          "type": "bytes"
        }
      ],
      "name": "safeTransferFrom",
      "outputs": [],
      "stateMutability": "nonpayable",
      "type": "function"
    },
    {
      "inputs": [
        {
          "internalType": "address",
          "name": "operator",
          "type": "address"
        },
        {
          "internalType": "bool",
          "name": "approved",
          "type": "bool"
        }
      ],
      "name": "setApprovalForAll",
      "outputs": [],
      "stateMutability": "nonpayable",
      "type": "function"
    },
    {
      "inputs": [
        {
          "internalType": "address",
          "name": "championFactoryAddress",
          "type": "address"
        }
      ],
      "name": "setChampionFactory",
      "outputs": [],
      "stateMutability": "nonpayable",
      "type": "function"
    },
    {
      "inputs": [
        {
          "internalType": "uint256",
          "name": "_rosterIndex",
          "type": "uint256"
        }
      ],
      "name": "setSelectChampion",
      "outputs": [],
      "stateMutability": "nonpayable",
      "type": "function"
    },
    {
      "inputs": [
        {
          "internalType": "bytes4",
          "name": "interfaceId",
          "type": "bytes4"
        }
      ],
      "name": "supportsInterface",
      "outputs": [
        {
          "internalType": "bool",
          "name": "",
          "type": "bool"
        }
      ],
      "stateMutability": "view",
      "type": "function"
    },
    {
      "inputs": [],
      "name": "symbol",
      "outputs": [
        {
          "internalType": "string",
          "name": "",
          "type": "string"
        }
      ],
      "stateMutability": "view",
      "type": "function"
    },
    {
      "inputs": [
        {
          "internalType": "uint256",
          "name": "_tokenId",
          "type": "uint256"
        }
      ],
      "name": "tokenURI",
      "outputs": [
        {
          "internalType": "string",
          "name": "",
          "type": "string"
        }
      ],
      "stateMutability": "view",
      "type": "function"
    },
    {
      "inputs": [
        {
          "internalType": "address",
          "name": "from",
          "type": "address"
        },
        {
          "internalType": "address",
          "name": "to",
          "type": "address"
        },
        {
          "internalType": "uint256",
          "name": "tokenId",
          "type": "uint256"
        }
      ],
      "name": "transferFrom",
      "outputs": [],
      "stateMutability": "nonpayable",
      "type": "function"
    },
    {
      "inputs": [
        {
          "internalType": "address",
          "name": "newOwner",
          "type": "address"
        }
      ],
      "name": "transferOwnership",
      "outputs": [],
      "stateMutability": "nonpayable",
      "type": "function"
    }
  ],
  "bytecode": "0x60806040523480156200001157600080fd5b50604080518082018252601181527026a6a79037b710313637b1b5b1b430b4b760791b60208083019182528351808501909452600384526226a6a160e91b908401528151919291620000669160009162000115565b5080516200007c90600190602084019062000115565b5050506200009962000093620000b660201b60201c565b620000ba565b620000b060086200010c60201b620015691760201c565b620001f8565b3390565b600680546001600160a01b038381166001600160a01b0319831681179093556040519116919082907f8be0079c531659141344cd1fd0a4f28419497f9722a3daafe3b4186f6b6457e090600090a35050565b80546001019055565b8280546200012390620001bb565b90600052602060002090601f01602090048101928262000147576000855562000192565b82601f106200016257805160ff191683800117855562000192565b8280016001018555821562000192579182015b828111156200019257825182559160200191906001019062000175565b50620001a0929150620001a4565b5090565b5b80821115620001a05760008155600101620001a5565b600281046001821680620001d057607f821691505b60208210811415620001f257634e487b7160e01b600052602260045260246000fd5b50919050565b61313580620002086000396000f3fe608060405234801561001057600080fd5b50600436106101b95760003560e01c80638137dcf2116100f9578063c87b56dd11610097578063d6ff4a2e11610071578063d6ff4a2e14610395578063e985e9c5146103ba578063f2fde38b146103cd578063f866d86e146103e0576101b9565b8063c87b56dd1461035c578063cb22f5041461036f578063d408345514610382576101b9565b806395d89b41116100d357806395d89b411461031b578063a22cb46514610323578063b88d4fde14610336578063ba56957a14610349576101b9565b80638137dcf2146102ed5780638da5cb5b146103005780638f2a475014610308576101b9565b8063301d2c66116101665780636352211e116101405780636352211e1461029d57806370a08231146102b0578063715018a6146102d05780637a70d6ce146102d8576101b9565b8063301d2c661461025757806331d214691461027757806342842e0e1461028a576101b9565b8063095ea7b311610197578063095ea7b31461021c57806323b872dd146102315780632cce898514610244576101b9565b806301ffc9a7146101be57806306fdde03146101e7578063081812fc146101fc575b600080fd5b6101d16101cc3660046123ca565b6103f3565b6040516101de91906128c8565b60405180910390f35b6101ef61046d565b6040516101de91906128d3565b61020f61020a366004612402565b6104ff565b6040516101de9190612834565b61022f61022a36600461227d565b61054b565b005b61022f61023f36600461216a565b6105e3565b61022f610252366004612402565b61061b565b61026a610265366004612402565b61068d565b6040516101de9190612e67565b61022f610285366004612402565b610a5b565b61022f61029836600461216a565b610a8f565b61020f6102ab366004612402565b610aaa565b6102c36102be366004612117565b610adf565b6040516101de9190612ec8565b61022f610b23565b6102e0610b6e565b6040516101de9190612884565b61022f6102fb36600461241a565b610bce565b61020f610bfb565b6102c3610316366004612117565b610c0a565b6101ef610c25565b61022f610331366004612243565b610c34565b61022f6103443660046121a5565b610c4a565b6102c3610357366004612117565b610c89565b6101ef61036a366004612402565b610c9b565b61022f61037d366004612117565b610d4f565b6102e0610390366004612117565b610db0565b6103a86103a3366004612402565b610e1c565b6040516101de9695949392919061290b565b6101d16103c8366004612138565b6111bc565b61022f6103db366004612117565b6111ea565b61022f6103ee366004612402565b61125b565b60006001600160e01b031982167f80ac58cd00000000000000000000000000000000000000000000000000000000148061045657506001600160e01b031982167f5b5e139f00000000000000000000000000000000000000000000000000000000145b80610465575061046582611572565b90505b919050565b60606000805461047c90612fc4565b80601f01602080910402602001604051908101604052809291908181526020018280546104a890612fc4565b80156104f55780601f106104ca576101008083540402835291602001916104f5565b820191906000526020600020905b8154815290600101906020018083116104d857829003601f168201915b5050505050905090565b600061050a826115a4565b61052f5760405162461bcd60e51b815260040161052690612ccf565b60405180910390fd5b506000908152600460205260409020546001600160a01b031690565b600061055682610aaa565b9050806001600160a01b0316836001600160a01b0316141561058a5760405162461bcd60e51b815260040161052690612dad565b806001600160a01b031661059c6115c1565b6001600160a01b031614806105b857506105b8816103c86115c1565b6105d45760405162461bcd60e51b815260040161052690612b83565b6105de83836115c5565b505050565b6105f46105ee6115c1565b82611633565b6106105760405162461bcd60e51b815260040161052690612e0a565b6105de8383836116b8565b6000610625610b6e565b90508051600014156106495760405162461bcd60e51b815260040161052690612d50565b600081838151811061066b57634e487b7160e01b600052603260045260246000fd5b602090810291909101810151336000908152600a909252604090912055505050565b610695611ed6565b6000828152600b602052604090819020815160c081019092528054829082906106bd90612fc4565b80601f01602080910402602001604051908101604052809291908181526020018280546106e990612fc4565b80156107365780601f1061070b57610100808354040283529160200191610736565b820191906000526020600020905b81548152906001019060200180831161071957829003601f168201915b5050505050815260200160018201548152602001600282015481526020016003820154815260200160048201548152602001600582016040518060a001604052908160008201805461078790612fc4565b80601f01602080910402602001604051908101604052809291908181526020018280546107b390612fc4565b80156108005780601f106107d557610100808354040283529160200191610800565b820191906000526020600020905b8154815290600101906020018083116107e357829003601f168201915b5050505050815260200160018201805461081990612fc4565b80601f016020809104026020016040519081016040528092919081815260200182805461084590612fc4565b80156108925780601f1061086757610100808354040283529160200191610892565b820191906000526020600020905b81548152906001019060200180831161087557829003601f168201915b505050505081526020016002820180546108ab90612fc4565b80601f01602080910402602001604051908101604052809291908181526020018280546108d790612fc4565b80156109245780601f106108f957610100808354040283529160200191610924565b820191906000526020600020905b81548152906001019060200180831161090757829003601f168201915b5050505050815260200160038201805461093d90612fc4565b80601f016020809104026020016040519081016040528092919081815260200182805461096990612fc4565b80156109b65780601f1061098b576101008083540402835291602001916109b6565b820191906000526020600020905b81548152906001019060200180831161099957829003601f168201915b505050505081526020016004820180546109cf90612fc4565b80601f01602080910402602001604051908101604052809291908181526020018280546109fb90612fc4565b8015610a485780601f10610a1d57610100808354040283529160200191610a48565b820191906000526020600020905b815481529060010190602001808311610a2b57829003601f168201915b5050509190925250505090525092915050565b6000818152600b60205260408120600481015460018201805492939192909190610a86908490612f36565b90915550505050565b6105de83838360405180602001604052806000815250610c4a565b6000818152600260205260408120546001600160a01b0316806104655760405162461bcd60e51b815260040161052690612c3d565b60006001600160a01b038216610b075760405162461bcd60e51b815260040161052690612be0565b506001600160a01b031660009081526003602052604090205490565b610b2b6115c1565b6001600160a01b0316610b3c610bfb565b6001600160a01b031614610b625760405162461bcd60e51b815260040161052690612d1b565b610b6c60006117eb565b565b336000908152600960209081526040918290208054835181840281018401909452808452606093928301828280156104f557602002820191906000526020600020905b815481526020019060010190808311610bb1575050505050905090565b6000828152600b6020526040812060018101805491928492610bf1908490612f81565b9091555050505050565b6006546001600160a01b031690565b6001600160a01b03166000908152600a602052604090205490565b60606001805461047c90612fc4565b610c46610c3f6115c1565b838361183d565b5050565b610c5b610c556115c1565b83611633565b610c775760405162461bcd60e51b815260040161052690612e0a565b610c83848484846118e0565b50505050565b600a6020526000908152604090205481565b6000818152600b60205260408120600181015460609290610cbb90611913565b90506000610ccc8360020154611913565b90506000610cdd8460030154611913565b90506000610d1e85610cee89611913565b604051610d0a92919060058a0190899089908990602001612641565b604051602081830303815290604052611a62565b9050600081604051602001610d3391906127ef565b60408051808303601f1901815291905298975050505050505050565b610d576115c1565b6001600160a01b0316610d68610bfb565b6001600160a01b031614610d8e5760405162461bcd60e51b815260040161052690612d1b565b600780546001600160a01b0319166001600160a01b0392909216919091179055565b6001600160a01b038116600090815260096020908152604091829020805483518184028101840190945280845260609392830182828015610e1057602002820191906000526020600020905b815481526020019060010190808311610dfc575b50505050509050919050565b600b60205260009081526040902080548190610e3790612fc4565b80601f0160208091040260200160405190810160405280929190818152602001828054610e6390612fc4565b8015610eb05780601f10610e8557610100808354040283529160200191610eb0565b820191906000526020600020905b815481529060010190602001808311610e9357829003601f168201915b505050505090806001015490806002015490806003015490806004015490806005016040518060a0016040529081600082018054610eed90612fc4565b80601f0160208091040260200160405190810160405280929190818152602001828054610f1990612fc4565b8015610f665780601f10610f3b57610100808354040283529160200191610f66565b820191906000526020600020905b815481529060010190602001808311610f4957829003601f168201915b50505050508152602001600182018054610f7f90612fc4565b80601f0160208091040260200160405190810160405280929190818152602001828054610fab90612fc4565b8015610ff85780601f10610fcd57610100808354040283529160200191610ff8565b820191906000526020600020905b815481529060010190602001808311610fdb57829003601f168201915b5050505050815260200160028201805461101190612fc4565b80601f016020809104026020016040519081016040528092919081815260200182805461103d90612fc4565b801561108a5780601f1061105f5761010080835404028352916020019161108a565b820191906000526020600020905b81548152906001019060200180831161106d57829003601f168201915b505050505081526020016003820180546110a390612fc4565b80601f01602080910402602001604051908101604052809291908181526020018280546110cf90612fc4565b801561111c5780601f106110f15761010080835404028352916020019161111c565b820191906000526020600020905b8154815290600101906020018083116110ff57829003601f168201915b5050505050815260200160048201805461113590612fc4565b80601f016020809104026020016040519081016040528092919081815260200182805461116190612fc4565b80156111ae5780601f10611183576101008083540402835291602001916111ae565b820191906000526020600020905b81548152906001019060200180831161119157829003601f168201915b505050505081525050905086565b6001600160a01b03918216600090815260056020908152604080832093909416825291909152205460ff1690565b6111f26115c1565b6001600160a01b0316611203610bfb565b6001600160a01b0316146112295760405162461bcd60e51b815260040161052690612d1b565b6001600160a01b03811661124f5760405162461bcd60e51b8152600401610526906129b2565b611258816117eb565b50565b60006112676008611bc5565b905061128c6040518060600160405280603981526020016130c7603991398383611bc9565b6112963382611c3e565b336000908152600960209081526040808320805460018101825590845291832090910183905560075481517f84e859b300000000000000000000000000000000000000000000000000000000815291516001600160a01b03909116916384e859b39160048083019286929190829003018186803b15801561131657600080fd5b505afa15801561132a573d6000803e3d6000fd5b505050506040513d6000823e601f3d908101601f1916820160405261135291908101906122a6565b90506040518060c0016040528082858151811061137f57634e487b7160e01b600052603260045260246000fd5b60200260200101516000015181526020018285815181106113b057634e487b7160e01b600052603260045260246000fd5b60200260200101516020015181526020018285815181106113e157634e487b7160e01b600052603260045260246000fd5b602002602001015160400151815260200182858151811061141257634e487b7160e01b600052603260045260246000fd5b602002602001015160600151815260200182858151811061144357634e487b7160e01b600052603260045260246000fd5b602002602001015160800151815260200182858151811061147457634e487b7160e01b600052603260045260246000fd5b60209081029190910181015160a001519091526000848152600b8252604090208251805191926114a992849290910190611f11565b50602082810151600183015560408301516002830155606083015160038301556080830151600483015560a083015180518051919260058501926114f09284920190611f11565b5060208281015180516115099260018501920190611f11565b5060408201518051611525916002840191602090910190611f11565b5060608201518051611541916003840191602090910190611f11565b506080820151805161155d916004840191602090910190611f11565b5050509050506105de60085b80546001019055565b6001600160e01b031981167f01ffc9a70000000000000000000000000000000000000000000000000000000014919050565b6000908152600260205260409020546001600160a01b0316151590565b3390565b600081815260046020526040902080546001600160a01b0319166001600160a01b03841690811790915581906115fa82610aaa565b6001600160a01b03167f8c5be1e5ebec7d5bd14f71427d1e84f3dd0314c0f7b2291e5b200ac8c7c3b92560405160405180910390a45050565b600061163e826115a4565b61165a5760405162461bcd60e51b815260040161052690612b37565b600061166583610aaa565b9050806001600160a01b0316846001600160a01b031614806116a05750836001600160a01b0316611695846104ff565b6001600160a01b0316145b806116b057506116b081856111bc565b949350505050565b826001600160a01b03166116cb82610aaa565b6001600160a01b0316146116f15760405162461bcd60e51b815260040161052690612a0f565b6001600160a01b0382166117175760405162461bcd60e51b815260040161052690612aa3565b6117228383836105de565b61172d6000826115c5565b6001600160a01b0383166000908152600360205260408120805460019290611756908490612f81565b90915550506001600160a01b0382166000908152600360205260408120805460019290611784908490612f36565b909155505060008181526002602052604080822080546001600160a01b0319166001600160a01b0386811691821790925591518493918716917fddf252ad1be2c89b69c2b068fc378daa952ba7f163c4a11628f55a4df523b3ef91a46105de8383836105de565b600680546001600160a01b038381166001600160a01b0319831681179093556040519116919082907f8be0079c531659141344cd1fd0a4f28419497f9722a3daafe3b4186f6b6457e090600090a35050565b816001600160a01b0316836001600160a01b0316141561186f5760405162461bcd60e51b815260040161052690612b00565b6001600160a01b0383811660008181526005602090815260408083209487168084529490915290819020805460ff1916851515179055517f17307eab39ab6107e8899845ad3d59bd9653f200f220920489ca2b5937696c31906118d39085906128c8565b60405180910390a3505050565b6118eb8484846116b8565b6118f784848484611c58565b610c835760405162461bcd60e51b815260040161052690612955565b606081611954575060408051808201909152600181527f30000000000000000000000000000000000000000000000000000000000000006020820152610468565b8160005b811561197e578061196881612fff565b91506119779050600a83612f4e565b9150611958565b60008167ffffffffffffffff8111156119a757634e487b7160e01b600052604160045260246000fd5b6040519080825280601f01601f1916602001820160405280156119d1576020820181803683370190505b5090505b84156116b0576119e6600183612f81565b91506119f3600a8661301a565b6119fe906030612f36565b60f81b818381518110611a2157634e487b7160e01b600052603260045260246000fd5b60200101907effffffffffffffffffffffffffffffffffffffffffffffffffffffffffffff1916908160001a905350611a5b600a86612f4e565b94506119d5565b6060815160001415611a835750604080516020810190915260008152610468565b60006040518060600160405280604081526020016130876040913990506000600384516002611ab29190612f36565b611abc9190612f4e565b611ac7906004612f62565b67ffffffffffffffff811115611aed57634e487b7160e01b600052604160045260246000fd5b6040519080825280601f01601f191660200182016040528015611b17576020820181803683370190505b509050600182016020820185865187015b80821015611b83576003820191508151603f8160121c168501518453600184019350603f81600c1c168501518453600184019350603f8160061c168501518453600184019350603f8116850151845350600183019250611b28565b5050600386510660018114611b9f5760028114611bb257611bba565b603d6001830353603d6002830353611bba565b603d60018303535b509195945050505050565b5490565b6105de838383604051602401611be1939291906128e6565b60408051601f198184030181529190526020810180517bffffffffffffffffffffffffffffffffffffffffffffffffffffffff167f969cdd0300000000000000000000000000000000000000000000000000000000179052611d8c565b610c46828260405180602001604052806000815250611dad565b6000611c6c846001600160a01b0316611de0565b15611d8157836001600160a01b031663150b7a02611c886115c1565b8786866040518563ffffffff1660e01b8152600401611caa9493929190612848565b602060405180830381600087803b158015611cc457600080fd5b505af1925050508015611cf4575060408051601f3d908101601f19168201909252611cf1918101906123e6565b60015b611d4e573d808015611d22576040519150601f19603f3d011682016040523d82523d6000602084013e611d27565b606091505b508051611d465760405162461bcd60e51b815260040161052690612955565b805181602001fd5b6001600160e01b0319167f150b7a02000000000000000000000000000000000000000000000000000000001490506116b0565b506001949350505050565b80516a636f6e736f6c652e6c6f67602083016000808483855afa5050505050565b611db78383611def565b611dc46000848484611c58565b6105de5760405162461bcd60e51b815260040161052690612955565b6001600160a01b03163b151590565b6001600160a01b038216611e155760405162461bcd60e51b815260040161052690612c9a565b611e1e816115a4565b15611e3b5760405162461bcd60e51b815260040161052690612a6c565b611e47600083836105de565b6001600160a01b0382166000908152600360205260408120805460019290611e70908490612f36565b909155505060008181526002602052604080822080546001600160a01b0319166001600160a01b03861690811790915590518392907fddf252ad1be2c89b69c2b068fc378daa952ba7f163c4a11628f55a4df523b3ef908290a4610c46600083836105de565b6040518060c001604052806060815260200160008152602001600081526020016000815260200160008152602001611f0c611f95565b905290565b828054611f1d90612fc4565b90600052602060002090601f016020900481019282611f3f5760008555611f85565b82601f10611f5857805160ff1916838001178555611f85565b82800160010185558215611f85579182015b82811115611f85578251825591602001919060010190611f6a565b50611f91929150611fc4565b5090565b6040518060a0016040528060608152602001606081526020016060815260200160608152602001606081525090565b5b80821115611f915760008155600101611fc5565b80356001600160a01b038116811461046857600080fd5b600082601f830112612000578081fd5b815161201361200e82612f02565b612ed1565b818152846020838601011115612027578283fd5b6116b0826020830160208701612f98565b600060a08284031215612049578081fd5b61205360a0612ed1565b9050815167ffffffffffffffff8082111561206d57600080fd5b61207985838601611ff0565b8352602084015191508082111561208f57600080fd5b61209b85838601611ff0565b602084015260408401519150808211156120b457600080fd5b6120c085838601611ff0565b604084015260608401519150808211156120d957600080fd5b6120e585838601611ff0565b606084015260808401519150808211156120fe57600080fd5b5061210b84828501611ff0565b60808301525092915050565b600060208284031215612128578081fd5b61213182611fd9565b9392505050565b6000806040838503121561214a578081fd5b61215383611fd9565b915061216160208401611fd9565b90509250929050565b60008060006060848603121561217e578081fd5b61218784611fd9565b925061219560208501611fd9565b9150604084013590509250925092565b600080600080608085870312156121ba578081fd5b6121c385611fd9565b93506121d160208601611fd9565b925060408501359150606085013567ffffffffffffffff8111156121f3578182fd5b8501601f81018713612203578182fd5b803561221161200e82612f02565b818152886020838501011115612225578384fd5b81602084016020830137908101602001929092525092959194509250565b60008060408385031215612255578182fd5b61225e83611fd9565b915060208301358015158114612272578182fd5b809150509250929050565b6000806040838503121561228f578182fd5b61229883611fd9565b946020939093013593505050565b600060208083850312156122b8578182fd5b825167ffffffffffffffff808211156122cf578384fd5b818501915085601f8301126122e2578384fd5b8151818111156122f4576122f461305a565b6123018485830201612ed1565b81815284810190848601875b848110156123bb578151870160c080601f19838f0301121561232d578a8bfd5b61233681612ed1565b8a83015189811115612346578c8dfd5b6123548f8d83870101611ff0565b8252506040808401518c830152606080850151828401526080915081850151818401525060a0840151818301525081830151915088821115612394578b8cfd5b6123a28e8c84860101612038565b60a082015286525050928701929087019060010161230d565b50909998505050505050505050565b6000602082840312156123db578081fd5b813561213181613070565b6000602082840312156123f7578081fd5b815161213181613070565b600060208284031215612413578081fd5b5035919050565b6000806040838503121561242c578182fd5b50508035926020909101359150565b60008151808452612453816020860160208601612f98565b601f01601f19169290920160200192915050565b60008151612479818560208601612f98565b9290920192915050565b80546000906002810460018083168061249d57607f831692505b60208084108214156124bd57634e487b7160e01b86526022600452602486fd5b8180156124d157600181146124e25761250f565b60ff1986168952848901965061250f565b6124eb88612f2a565b60005b868110156125075781548b8201529085019083016124ee565b505084890196505b50505050505092915050565b7f2c20226d61785f76616c7565223a0000000000000000000000000000000000008152600e0190565b7f7d205d7d00000000000000000000000000000000000000000000000000000000815260040190565b7f7d2c207b202274726169745f74797065223a202241747461636b2044616d616781527f65222c202276616c7565223a20000000000000000000000000000000000000006020820152602d0190565b6000815160a084526125d160a085018261243b565b9050602083015184820360208601526125ea828261243b565b91505060408301518482036040860152612604828261243b565b9150506060830151848203606086015261261e828261243b565b91505060808301518482036080860152612638828261243b565b95945050505050565b60007f7b226e616d65223a2022000000000000000000000000000000000000000000008252612673600a830189612483565b7f202d2d204e465420233a20000000000000000000000000000000000000000000815287516126a981600b840160208c01612f98565b7f222c20226465736372697074696f6e223a20225468697320697320616e204e46600b92909101918201527f542074686174206c6574732070656f706c6520706c617920696e207468652067602b8201527f616d65204d657461766572736520536c6179657221222c2022696d616765223a604b8201527f2022000000000000000000000000000000000000000000000000000000000000606b820152612753606d820188612483565b90507f222c202261747472696275746573223a205b207b202274726169745f7479706581527f223a20224865616c746820506f696e7473222c202276616c7565223a20000000602082015285516127b181603d840160208a01612f98565b6127e16127dc6127d66127d16127cb603d8688010161251b565b8a612467565b61256d565b87612467565b612544565b9a9950505050505050505050565b60007f646174613a6170706c69636174696f6e2f6a736f6e3b6261736536342c0000008252825161282781601d850160208701612f98565b91909101601d0192915050565b6001600160a01b0391909116815260200190565b60006001600160a01b0380871683528086166020840152508360408301526080606083015261287a608083018461243b565b9695505050505050565b6020808252825182820181905260009190848201906040850190845b818110156128bc578351835292840192918401916001016128a0565b50909695505050505050565b901515815260200190565b600060208252612131602083018461243b565b6000606082526128f9606083018661243b565b60208301949094525060400152919050565b600060c0825261291e60c083018961243b565b87602084015286604084015285606084015284608084015282810360a084015261294881856125bc565b9998505050505050505050565b60208082526032908201527f4552433732313a207472616e7366657220746f206e6f6e20455243373231526560408201527f63656976657220696d706c656d656e7465720000000000000000000000000000606082015260800190565b60208082526026908201527f4f776e61626c653a206e6577206f776e657220697320746865207a65726f206160408201527f6464726573730000000000000000000000000000000000000000000000000000606082015260800190565b60208082526025908201527f4552433732313a207472616e736665722066726f6d20696e636f72726563742060408201527f6f776e6572000000000000000000000000000000000000000000000000000000606082015260800190565b6020808252601c908201527f4552433732313a20746f6b656e20616c7265616479206d696e74656400000000604082015260600190565b60208082526024908201527f4552433732313a207472616e7366657220746f20746865207a65726f2061646460408201527f7265737300000000000000000000000000000000000000000000000000000000606082015260800190565b60208082526019908201527f4552433732313a20617070726f766520746f2063616c6c657200000000000000604082015260600190565b6020808252602c908201527f4552433732313a206f70657261746f7220717565727920666f72206e6f6e657860408201526b34b9ba32b73a103a37b5b2b760a11b606082015260800190565b60208082526038908201527f4552433732313a20617070726f76652063616c6c6572206973206e6f74206f7760408201527f6e6572206e6f7220617070726f76656420666f7220616c6c0000000000000000606082015260800190565b6020808252602a908201527f4552433732313a2062616c616e636520717565727920666f7220746865207a6560408201527f726f206164647265737300000000000000000000000000000000000000000000606082015260800190565b60208082526029908201527f4552433732313a206f776e657220717565727920666f72206e6f6e657869737460408201527f656e7420746f6b656e0000000000000000000000000000000000000000000000606082015260800190565b6020808252818101527f4552433732313a206d696e7420746f20746865207a65726f2061646472657373604082015260600190565b6020808252602c908201527f4552433732313a20617070726f76656420717565727920666f72206e6f6e657860408201526b34b9ba32b73a103a37b5b2b760a11b606082015260800190565b6020808252818101527f4f776e61626c653a2063616c6c6572206973206e6f7420746865206f776e6572604082015260600190565b6020808252602d908201527f55736572206d7573742068617665206120726f7374657220746f2073656c656360408201527f742061206368616d70696f6e2e00000000000000000000000000000000000000606082015260800190565b60208082526021908201527f4552433732313a20617070726f76616c20746f2063757272656e74206f776e6560408201527f7200000000000000000000000000000000000000000000000000000000000000606082015260800190565b60208082526031908201527f4552433732313a207472616e736665722063616c6c6572206973206e6f74206f60408201527f776e6572206e6f7220617070726f766564000000000000000000000000000000606082015260800190565b600060208252825160c06020840152612e8360e084018261243b565b9050602084015160408401526040840151606084015260608401516080840152608084015160a084015260a0840151601f198483030160c085015261263882826125bc565b90815260200190565b604051601f8201601f1916810167ffffffffffffffff81118282101715612efa57612efa61305a565b604052919050565b600067ffffffffffffffff821115612f1c57612f1c61305a565b50601f01601f191660200190565b60009081526020902090565b60008219821115612f4957612f4961302e565b500190565b600082612f5d57612f5d613044565b500490565b6000816000190483118215151615612f7c57612f7c61302e565b500290565b600082821015612f9357612f9361302e565b500390565b60005b83811015612fb3578181015183820152602001612f9b565b83811115610c835750506000910152565b600281046001821680612fd857607f821691505b60208210811415612ff957634e487b7160e01b600052602260045260246000fd5b50919050565b60006000198214156130135761301361302e565b5060010190565b60008261302957613029613044565b500690565b634e487b7160e01b600052601160045260246000fd5b634e487b7160e01b600052601260045260246000fd5b634e487b7160e01b600052604160045260246000fd5b6001600160e01b03198116811461125857600080fdfe4142434445464748494a4b4c4d4e4f505152535455565758595a6162636465666768696a6b6c6d6e6f707172737475767778797a303132333435363738392b2f5265676973746572696e67206368616d70696f6e6964202573206f6e2074686520636f6e7472616374207769746820746f6b656e4944202564a2646970667358221220d2c42343ffa89bb9e79a18b552c1a1e289bb70eeb27b1a35c2b1316c5b552dab64736f6c63430008010033",
  "linkReferences": {},
  "deployedLinkReferences": {}
}