{
  "_format": "hh-sol-artifact-1",
  "contractName": "BossFactory",
  "sourceName": "contracts/BossFactory.sol",
  "abi": [
    {
      "anonymous": false,
      "inputs": [
        {
          "indexed": true,
          "internalType": "address",
          "name": "previousOwner",
          "type": "address"
        },
        {
          "indexed": true,
          "internalType": "address",
          "name": "newOwner",
          "type": "address"
        }
      ],
      "name": "OwnershipTransferred",
      "type": "event"
    },
    {
      "inputs": [
        {
          "internalType": "uint256",
          "name": "",
          "type": "uint256"
        }
      ],
      "name": "Bosses",
      "outputs": [
        {
          "internalType": "string",
          "name": "name",
          "type": "string"
        },
        {
          "internalType": "uint256",
          "name": "health",
          "type": "uint256"
        },
        {
          "internalType": "uint256",
          "name": "maxHealth",
          "type": "uint256"
        },
        {
          "internalType": "uint256",
          "name": "attackPower",
          "type": "uint256"
        },
        {
          "components": [
            {
              "internalType": "string",
              "name": "idle",
              "type": "string"
            },
            {
              "internalType": "string",
              "name": "attack",
              "type": "string"
            },
            {
              "internalType": "string",
              "name": "hurt",
              "type": "string"
            },
            {
              "internalType": "string",
              "name": "dying",
              "type": "string"
            },
            {
              "internalType": "string",
              "name": "dead",
              "type": "string"
            }
          ],
          "internalType": "struct GifStatus",
          "name": "gifUris",
          "type": "tuple"
        }
      ],
      "stateMutability": "view",
      "type": "function"
    },
    {
      "inputs": [
        {
          "internalType": "string",
          "name": "name",
          "type": "string"
        },
        {
          "internalType": "uint256",
          "name": "health",
          "type": "uint256"
        },
        {
          "internalType": "uint256",
          "name": "attackPower",
          "type": "uint256"
        },
        {
          "internalType": "string[]",
          "name": "gifUris",
          "type": "string[]"
        }
      ],
      "name": "addBoss",
      "outputs": [],
      "stateMutability": "nonpayable",
      "type": "function"
    },
    {
      "inputs": [],
      "name": "getBossList",
      "outputs": [
        {
          "components": [
            {
              "internalType": "string",
              "name": "name",
              "type": "string"
            },
            {
              "internalType": "uint256",
              "name": "health",
              "type": "uint256"
            },
            {
              "internalType": "uint256",
              "name": "maxHealth",
              "type": "uint256"
            },
            {
              "internalType": "uint256",
              "name": "attackPower",
              "type": "uint256"
            },
            {
              "components": [
                {
                  "internalType": "string",
                  "name": "idle",
                  "type": "string"
                },
                {
                  "internalType": "string",
                  "name": "attack",
                  "type": "string"
                },
                {
                  "internalType": "string",
                  "name": "hurt",
                  "type": "string"
                },
                {
                  "internalType": "string",
                  "name": "dying",
                  "type": "string"
                },
                {
                  "internalType": "string",
                  "name": "dead",
                  "type": "string"
                }
              ],
              "internalType": "struct GifStatus",
              "name": "gifUris",
              "type": "tuple"
            }
          ],
          "internalType": "struct Boss[]",
          "name": "",
          "type": "tuple[]"
        }
      ],
      "stateMutability": "view",
      "type": "function"
    },
    {
      "inputs": [],
      "name": "owner",
      "outputs": [
        {
          "internalType": "address",
          "name": "",
          "type": "address"
        }
      ],
      "stateMutability": "view",
      "type": "function"
    },
    {
      "inputs": [],
      "name": "renounceOwnership",
      "outputs": [],
      "stateMutability": "nonpayable",
      "type": "function"
    },
    {
      "inputs": [
        {
          "internalType": "address",
          "name": "newOwner",
          "type": "address"
        }
      ],
      "name": "transferOwnership",
      "outputs": [],
      "stateMutability": "nonpayable",
      "type": "function"
    }
  ],
  "bytecode": "0x608060405234801561001057600080fd5b5061002161001c610026565b61002a565b61007a565b3390565b600080546001600160a01b038381166001600160a01b0319831681178455604051919092169283917f8be0079c531659141344cd1fd0a4f28419497f9722a3daafe3b4186f6b6457e09190a35050565b6111ec806100896000396000f3fe608060405234801561001057600080fd5b50600436106100725760003560e01c8063715018a611610050578063715018a6146100ce5780638da5cb5b146100d6578063f2fde38b146100eb57610072565b8063048925111461007757806344a83b811461008c5780636f5b9f4c146100b9575b600080fd5b61008a610085366004610deb565b6100fe565b005b61009f61009a366004610ebf565b610370565b6040516100b095949392919061105f565b60405180910390f35b6100c1610722565b6040516100b09190610fbb565b61008a610b1f565b6100de610b6a565b6040516100b09190610fa7565b61008a6100f9366004610dbd565b610b79565b610106610bea565b6001600160a01b0316610117610b6a565b6001600160a01b0316146101465760405162461bcd60e51b815260040161013d906110ff565b60405180910390fd5b61014e610c56565b8481526020810184905260408101849052606081018390528151829060009061018757634e487b7160e01b600052603260045260246000fd5b6020026020010151816080015160000181905250816001815181106101bc57634e487b7160e01b600052603260045260246000fd5b6020026020010151816080015160200181905250816002815181106101f157634e487b7160e01b600052603260045260246000fd5b60200260200101518160800151604001819052508160038151811061022657634e487b7160e01b600052603260045260246000fd5b60200260200101518160800151606001819052508160048151811061025b57634e487b7160e01b600052603260045260246000fd5b602090810291909101810151608080840151015260018054808201825560009190915282518051849360099093027fb10e2d527612073b26eecdfd717e6a320cf44b4afac2b0732d9fcbe2b7fa0cf601926102ba928492910190610c8a565b5060208281015160018301556040830151600283015560608301516003830155608083015180518051919260048501926102f79284920190610c8a565b5060208281015180516103109260018501920190610c8a565b506040820151805161032c916002840191602090910190610c8a565b5060608201518051610348916003840191602090910190610c8a565b5060808201518051610364916004840191602090910190610c8a565b50505050505050505050565b6001818154811061038057600080fd5b90600052602060002090600902016000915090508060000180546103a390611165565b80601f01602080910402602001604051908101604052809291908181526020018280546103cf90611165565b801561041c5780601f106103f15761010080835404028352916020019161041c565b820191906000526020600020905b8154815290600101906020018083116103ff57829003601f168201915b505050505090806001015490806002015490806003015490806004016040518060a001604052908160008201805461045390611165565b80601f016020809104026020016040519081016040528092919081815260200182805461047f90611165565b80156104cc5780601f106104a1576101008083540402835291602001916104cc565b820191906000526020600020905b8154815290600101906020018083116104af57829003601f168201915b505050505081526020016001820180546104e590611165565b80601f016020809104026020016040519081016040528092919081815260200182805461051190611165565b801561055e5780601f106105335761010080835404028352916020019161055e565b820191906000526020600020905b81548152906001019060200180831161054157829003601f168201915b5050505050815260200160028201805461057790611165565b80601f01602080910402602001604051908101604052809291908181526020018280546105a390611165565b80156105f05780601f106105c5576101008083540402835291602001916105f0565b820191906000526020600020905b8154815290600101906020018083116105d357829003601f168201915b5050505050815260200160038201805461060990611165565b80601f016020809104026020016040519081016040528092919081815260200182805461063590611165565b80156106825780601f1061065757610100808354040283529160200191610682565b820191906000526020600020905b81548152906001019060200180831161066557829003601f168201915b5050505050815260200160048201805461069b90611165565b80601f01602080910402602001604051908101604052809291908181526020018280546106c790611165565b80156107145780601f106106e957610100808354040283529160200191610714565b820191906000526020600020905b8154815290600101906020018083116106f757829003601f168201915b505050505081525050905085565b60606001805480602002602001604051908101604052809291908181526020016000905b82821015610b1657838290600052602060002090600902016040518060a001604052908160008201805461077990611165565b80601f01602080910402602001604051908101604052809291908181526020018280546107a590611165565b80156107f25780601f106107c7576101008083540402835291602001916107f2565b820191906000526020600020905b8154815290600101906020018083116107d557829003601f168201915b50505050508152602001600182015481526020016002820154815260200160038201548152602001600482016040518060a001604052908160008201805461083990611165565b80601f016020809104026020016040519081016040528092919081815260200182805461086590611165565b80156108b25780601f10610887576101008083540402835291602001916108b2565b820191906000526020600020905b81548152906001019060200180831161089557829003601f168201915b505050505081526020016001820180546108cb90611165565b80601f01602080910402602001604051908101604052809291908181526020018280546108f790611165565b80156109445780601f1061091957610100808354040283529160200191610944565b820191906000526020600020905b81548152906001019060200180831161092757829003601f168201915b5050505050815260200160028201805461095d90611165565b80601f016020809104026020016040519081016040528092919081815260200182805461098990611165565b80156109d65780601f106109ab576101008083540402835291602001916109d6565b820191906000526020600020905b8154815290600101906020018083116109b957829003601f168201915b505050505081526020016003820180546109ef90611165565b80601f0160208091040260200160405190810160405280929190818152602001828054610a1b90611165565b8015610a685780601f10610a3d57610100808354040283529160200191610a68565b820191906000526020600020905b815481529060010190602001808311610a4b57829003601f168201915b50505050508152602001600482018054610a8190611165565b80601f0160208091040260200160405190810160405280929190818152602001828054610aad90611165565b8015610afa5780601f10610acf57610100808354040283529160200191610afa565b820191906000526020600020905b815481529060010190602001808311610add57829003601f168201915b5050505050815250508152505081526020019060010190610746565b50505050905090565b610b27610bea565b6001600160a01b0316610b38610b6a565b6001600160a01b031614610b5e5760405162461bcd60e51b815260040161013d906110ff565b610b686000610bee565b565b6000546001600160a01b031690565b610b81610bea565b6001600160a01b0316610b92610b6a565b6001600160a01b031614610bb85760405162461bcd60e51b815260040161013d906110ff565b6001600160a01b038116610bde5760405162461bcd60e51b815260040161013d906110a2565b610be781610bee565b50565b3390565b600080546001600160a01b038381167fffffffffffffffffffffffff0000000000000000000000000000000000000000831681178455604051919092169283917f8be0079c531659141344cd1fd0a4f28419497f9722a3daafe3b4186f6b6457e09190a35050565b6040518060a0016040528060608152602001600081526020016000815260200160008152602001610c85610d0e565b905290565b828054610c9690611165565b90600052602060002090601f016020900481019282610cb85760008555610cfe565b82601f10610cd157805160ff1916838001178555610cfe565b82800160010185558215610cfe579182015b82811115610cfe578251825591602001919060010190610ce3565b50610d0a929150610d3d565b5090565b6040518060a0016040528060608152602001606081526020016060815260200160608152602001606081525090565b5b80821115610d0a5760008155600101610d3e565b600082601f830112610d62578081fd5b813567ffffffffffffffff811115610d7c57610d7c6111a0565b610d8f601f8201601f1916602001611134565b818152846020838601011115610da3578283fd5b816020850160208301379081016020019190915292915050565b600060208284031215610dce578081fd5b81356001600160a01b0381168114610de4578182fd5b9392505050565b60008060008060808587031215610e00578283fd5b843567ffffffffffffffff80821115610e17578485fd5b610e2388838901610d52565b95506020915081870135945060408701359350606087013581811115610e47578384fd5b8701601f81018913610e57578384fd5b803582811115610e6957610e696111a0565b610e768485830201611134565b8181528481019350828501865b83811015610eac57610e9a8d888435880101610d52565b86529486019490860190600101610e83565b5050809550505050505092959194509250565b600060208284031215610ed0578081fd5b5035919050565b60008151808452815b81811015610efc57602081850181015186830182015201610ee0565b81811115610f0d5782602083870101525b50601f01601f19169290920160200192915050565b6000815160a08452610f3760a0850182610ed7565b905060208301518482036020860152610f508282610ed7565b91505060408301518482036040860152610f6a8282610ed7565b91505060608301518482036060860152610f848282610ed7565b91505060808301518482036080860152610f9e8282610ed7565b95945050505050565b6001600160a01b0391909116815260200190565b60208082528251828201819052600091906040908185019080840286018301878501865b8381101561105157603f19898403018552815160a0815181865261100582870182610ed7565b9150508882015189860152878201518886015260608083015181870152506080808301519250858203818701525061103d8183610f22565b968901969450505090860190600101610fdf565b509098975050505050505050565b600060a0825261107260a0830188610ed7565b86602084015285604084015284606084015282810360808401526110968185610f22565b98975050505050505050565b60208082526026908201527f4f776e61626c653a206e6577206f776e657220697320746865207a65726f206160408201527f6464726573730000000000000000000000000000000000000000000000000000606082015260800190565b6020808252818101527f4f776e61626c653a2063616c6c6572206973206e6f7420746865206f776e6572604082015260600190565b604051601f8201601f1916810167ffffffffffffffff8111828210171561115d5761115d6111a0565b604052919050565b60028104600182168061117957607f821691505b6020821081141561119a57634e487b7160e01b600052602260045260246000fd5b50919050565b634e487b7160e01b600052604160045260246000fdfea2646970667358221220cca920c80edad6431e861b9aa34918c91cd4214ead2b791a082e3568a672f7b564736f6c63430008010033",
  "linkReferences": {},
  "deployedLinkReferences": {}
}