{
  "_format": "hh-sol-artifact-1",
  "contractName": "ChampionFactory",
  "sourceName": "contracts/ChampionFactory.sol",
  "abi": [
    {
      "anonymous": false,
      "inputs": [
        {
          "indexed": true,
          "internalType": "address",
          "name": "previousOwner",
          "type": "address"
        },
        {
          "indexed": true,
          "internalType": "address",
          "name": "newOwner",
          "type": "address"
        }
      ],
      "name": "OwnershipTransferred",
      "type": "event"
    },
    {
      "inputs": [
        {
          "internalType": "string",
          "name": "name",
          "type": "string"
        },
        {
          "internalType": "uint256",
          "name": "maxHealth",
          "type": "uint256"
        },
        {
          "internalType": "uint256",
          "name": "attackPower",
          "type": "uint256"
        },
        {
          "internalType": "uint256",
          "name": "healPower",
          "type": "uint256"
        },
        {
          "internalType": "string[]",
          "name": "gifUris",
          "type": "string[]"
        }
      ],
      "name": "addChampion",
      "outputs": [],
      "stateMutability": "nonpayable",
      "type": "function"
    },
    {
      "inputs": [],
      "name": "getChampionList",
      "outputs": [
        {
          "components": [
            {
              "internalType": "string",
              "name": "name",
              "type": "string"
            },
            {
              "internalType": "uint256",
              "name": "health",
              "type": "uint256"
            },
            {
              "internalType": "uint256",
              "name": "maxHealth",
              "type": "uint256"
            },
            {
              "internalType": "uint256",
              "name": "attackPower",
              "type": "uint256"
            },
            {
              "internalType": "uint256",
              "name": "healPower",
              "type": "uint256"
            },
            {
              "components": [
                {
                  "internalType": "string",
                  "name": "idle",
                  "type": "string"
                },
                {
                  "internalType": "string",
                  "name": "attack",
                  "type": "string"
                },
                {
                  "internalType": "string",
                  "name": "hurt",
                  "type": "string"
                },
                {
                  "internalType": "string",
                  "name": "dying",
                  "type": "string"
                },
                {
                  "internalType": "string",
                  "name": "dead",
                  "type": "string"
                }
              ],
              "internalType": "struct GifStatus",
              "name": "gifUris",
              "type": "tuple"
            }
          ],
          "internalType": "struct Champion[]",
          "name": "",
          "type": "tuple[]"
        }
      ],
      "stateMutability": "view",
      "type": "function"
    },
    {
      "inputs": [],
      "name": "owner",
      "outputs": [
        {
          "internalType": "address",
          "name": "",
          "type": "address"
        }
      ],
      "stateMutability": "view",
      "type": "function"
    },
    {
      "inputs": [],
      "name": "renounceOwnership",
      "outputs": [],
      "stateMutability": "nonpayable",
      "type": "function"
    },
    {
      "inputs": [
        {
          "internalType": "address",
          "name": "newOwner",
          "type": "address"
        }
      ],
      "name": "transferOwnership",
      "outputs": [],
      "stateMutability": "nonpayable",
      "type": "function"
    }
  ],
  "bytecode": "0x608060405234801561001057600080fd5b5061002161001c610026565b61002a565b61007a565b3390565b600080546001600160a01b038381166001600160a01b0319831681178455604051919092169283917f8be0079c531659141344cd1fd0a4f28419497f9722a3daafe3b4186f6b6457e09190a35050565b610dcd806100896000396000f3fe608060405234801561001057600080fd5b50600436106100675760003560e01c806384e859b31161005057806384e859b3146100895780638da5cb5b146100a7578063f2fde38b146100bc57610067565b8063715018a61461006c5780637a3486fd14610076575b600080fd5b6100746100cf565b005b610074610084366004610a2e565b610123565b61009161039f565b60405161009e9190610b6b565b60405180910390f35b6100af6107a6565b60405161009e9190610b57565b6100746100ca366004610a00565b6107b5565b6100d7610826565b6001600160a01b03166100e86107a6565b6001600160a01b0316146101175760405162461bcd60e51b815260040161010e90610ce0565b60405180910390fd5b610121600061082a565b565b61012b610826565b6001600160a01b031661013c6107a6565b6001600160a01b0316146101625760405162461bcd60e51b815260040161010e90610ce0565b61016a610892565b85815260208101859052604081018590526060810184905260808101839052815182906000906101aa57634e487b7160e01b600052603260045260246000fd5b60200260200101518160a0015160000181905250816001815181106101df57634e487b7160e01b600052603260045260246000fd5b60200260200101518160a00151602001819052508160028151811061021457634e487b7160e01b600052603260045260246000fd5b60200260200101518160a00151604001819052508160038151811061024957634e487b7160e01b600052603260045260246000fd5b60200260200101518160a00151606001819052508160048151811061027e57634e487b7160e01b600052603260045260246000fd5b60209081029190910181015160a083015160800152600180548082018255600091909152825180518493600a9093027fb10e2d527612073b26eecdfd717e6a320cf44b4afac2b0732d9fcbe2b7fa0cf601926102de9284929101906108cd565b50602082810151600183015560408301516002830155606083015160038301556080830151600483015560a0830151805180519192600585019261032592849201906108cd565b50602082810151805161033e92600185019201906108cd565b506040820151805161035a9160028401916020909101906108cd565b50606082015180516103769160038401916020909101906108cd565b50608082015180516103929160048401916020909101906108cd565b5050505050505050505050565b60606001805480602002602001604051908101604052809291908181526020016000905b8282101561079d57838290600052602060002090600a02016040518060c00160405290816000820180546103f690610d46565b80601f016020809104026020016040519081016040528092919081815260200182805461042290610d46565b801561046f5780601f106104445761010080835404028352916020019161046f565b820191906000526020600020905b81548152906001019060200180831161045257829003601f168201915b5050505050815260200160018201548152602001600282015481526020016003820154815260200160048201548152602001600582016040518060a00160405290816000820180546104c090610d46565b80601f01602080910402602001604051908101604052809291908181526020018280546104ec90610d46565b80156105395780601f1061050e57610100808354040283529160200191610539565b820191906000526020600020905b81548152906001019060200180831161051c57829003601f168201915b5050505050815260200160018201805461055290610d46565b80601f016020809104026020016040519081016040528092919081815260200182805461057e90610d46565b80156105cb5780601f106105a0576101008083540402835291602001916105cb565b820191906000526020600020905b8154815290600101906020018083116105ae57829003601f168201915b505050505081526020016002820180546105e490610d46565b80601f016020809104026020016040519081016040528092919081815260200182805461061090610d46565b801561065d5780601f106106325761010080835404028352916020019161065d565b820191906000526020600020905b81548152906001019060200180831161064057829003601f168201915b5050505050815260200160038201805461067690610d46565b80601f01602080910402602001604051908101604052809291908181526020018280546106a290610d46565b80156106ef5780601f106106c4576101008083540402835291602001916106ef565b820191906000526020600020905b8154815290600101906020018083116106d257829003601f168201915b5050505050815260200160048201805461070890610d46565b80601f016020809104026020016040519081016040528092919081815260200182805461073490610d46565b80156107815780601f1061075657610100808354040283529160200191610781565b820191906000526020600020905b81548152906001019060200180831161076457829003601f168201915b50505050508152505081525050815260200190600101906103c3565b50505050905090565b6000546001600160a01b031690565b6107bd610826565b6001600160a01b03166107ce6107a6565b6001600160a01b0316146107f45760405162461bcd60e51b815260040161010e90610ce0565b6001600160a01b03811661081a5760405162461bcd60e51b815260040161010e90610c83565b6108238161082a565b50565b3390565b600080546001600160a01b038381167fffffffffffffffffffffffff0000000000000000000000000000000000000000831681178455604051919092169283917f8be0079c531659141344cd1fd0a4f28419497f9722a3daafe3b4186f6b6457e09190a35050565b6040518060c0016040528060608152602001600081526020016000815260200160008152602001600081526020016108c8610951565b905290565b8280546108d990610d46565b90600052602060002090601f0160209004810192826108fb5760008555610941565b82601f1061091457805160ff1916838001178555610941565b82800160010185558215610941579182015b82811115610941578251825591602001919060010190610926565b5061094d929150610980565b5090565b6040518060a0016040528060608152602001606081526020016060815260200160608152602001606081525090565b5b8082111561094d5760008155600101610981565b600082601f8301126109a5578081fd5b813567ffffffffffffffff8111156109bf576109bf610d81565b6109d2601f8201601f1916602001610d15565b8181528460208386010111156109e6578283fd5b816020850160208301379081016020019190915292915050565b600060208284031215610a11578081fd5b81356001600160a01b0381168114610a27578182fd5b9392505050565b600080600080600060a08688031215610a45578081fd5b853567ffffffffffffffff80821115610a5c578283fd5b610a6889838a01610995565b9650602091508188013595506040880135945060608801359350608088013581811115610a93578384fd5b8801601f81018a13610aa3578384fd5b803582811115610ab557610ab5610d81565b610ac28485830201610d15565b8181528481019350828501865b83811015610af857610ae68e888435880101610995565b86529486019490860190600101610acf565b505080955050505050509295509295909350565b60008151808452815b81811015610b3157602081850181015186830182015201610b15565b81811115610b425782602083870101525b50601f01601f19169290920160200192915050565b6001600160a01b0391909116815260200190565b60208082528251828201819052600091906040908185019080840286018301878501865b83811015610c7557603f19898403018552815160c08151818652610bb582870182610b0c565b91505088820151898601528782015188860152606080830151818701526080808401518188015260a0808501519450878403818901528451818552610bfc82860182610b0c565b9150508b8501518482038d860152610c148282610b0c565b9150508a8501518482038c860152610c2c8282610b0c565b9150508285015184820384860152610c448282610b0c565b935050508084015193508282038184015250610c608184610b0c565b978a0197955050509187019150600101610b8f565b509098975050505050505050565b60208082526026908201527f4f776e61626c653a206e6577206f776e657220697320746865207a65726f206160408201527f6464726573730000000000000000000000000000000000000000000000000000606082015260800190565b6020808252818101527f4f776e61626c653a2063616c6c6572206973206e6f7420746865206f776e6572604082015260600190565b604051601f8201601f1916810167ffffffffffffffff81118282101715610d3e57610d3e610d81565b604052919050565b600281046001821680610d5a57607f821691505b60208210811415610d7b57634e487b7160e01b600052602260045260246000fd5b50919050565b634e487b7160e01b600052604160045260246000fdfea2646970667358221220e84051c4c4c837d54601ac36b6236befcb1d93307a1420b799c18b00aca54a6a64736f6c63430008010033",
  "linkReferences": {},
  "deployedLinkReferences": {}
}