{
  "_format": "hh-sol-artifact-1",
  "contractName": "Roster",
  "sourceName": "contracts/Roster.sol",
  "abi": [
    {
      "inputs": [],
      "stateMutability": "nonpayable",
      "type": "constructor"
    },
    {
      "anonymous": false,
      "inputs": [
        {
          "indexed": true,
          "internalType": "address",
          "name": "owner",
          "type": "address"
        },
        {
          "indexed": true,
          "internalType": "address",
          "name": "approved",
          "type": "address"
        },
        {
          "indexed": true,
          "internalType": "uint256",
          "name": "tokenId",
          "type": "uint256"
        }
      ],
      "name": "Approval",
      "type": "event"
    },
    {
      "anonymous": false,
      "inputs": [
        {
          "indexed": true,
          "internalType": "address",
          "name": "owner",
          "type": "address"
        },
        {
          "indexed": true,
          "internalType": "address",
          "name": "operator",
          "type": "address"
        },
        {
          "indexed": false,
          "internalType": "bool",
          "name": "approved",
          "type": "bool"
        }
      ],
      "name": "ApprovalForAll",
      "type": "event"
    },
    {
      "anonymous": false,
      "inputs": [
        {
          "indexed": true,
          "internalType": "address",
          "name": "previousOwner",
          "type": "address"
        },
        {
          "indexed": true,
          "internalType": "address",
          "name": "newOwner",
          "type": "address"
        }
      ],
      "name": "OwnershipTransferred",
      "type": "event"
    },
    {
      "anonymous": false,
      "inputs": [
        {
          "indexed": true,
          "internalType": "address",
          "name": "from",
          "type": "address"
        },
        {
          "indexed": true,
          "internalType": "address",
          "name": "to",
          "type": "address"
        },
        {
          "indexed": true,
          "internalType": "uint256",
          "name": "tokenId",
          "type": "uint256"
        }
      ],
      "name": "Transfer",
      "type": "event"
    },
    {
      "inputs": [
        {
          "internalType": "uint256",
          "name": "",
          "type": "uint256"
        }
      ],
      "name": "NftHolderChampion",
      "outputs": [
        {
          "internalType": "string",
          "name": "name",
          "type": "string"
        },
        {
          "internalType": "uint256",
          "name": "health",
          "type": "uint256"
        },
        {
          "internalType": "uint256",
          "name": "maxHealth",
          "type": "uint256"
        },
        {
          "internalType": "uint256",
          "name": "attackPower",
          "type": "uint256"
        },
        {
          "internalType": "uint256",
          "name": "healPower",
          "type": "uint256"
        },
        {
          "components": [
            {
              "internalType": "string",
              "name": "idle",
              "type": "string"
            },
            {
              "internalType": "string",
              "name": "attack",
              "type": "string"
            },
            {
              "internalType": "string",
              "name": "hurt",
              "type": "string"
            },
            {
              "internalType": "string",
              "name": "dying",
              "type": "string"
            },
            {
              "internalType": "string",
              "name": "dead",
              "type": "string"
            }
          ],
          "internalType": "struct GifStatus",
          "name": "gifUris",
          "type": "tuple"
        }
      ],
      "stateMutability": "view",
      "type": "function"
    },
    {
      "inputs": [
        {
          "internalType": "address",
          "name": "",
          "type": "address"
        }
      ],
      "name": "SelectedChampion",
      "outputs": [
        {
          "internalType": "uint256",
          "name": "",
          "type": "uint256"
        }
      ],
      "stateMutability": "view",
      "type": "function"
    },
    {
      "inputs": [
        {
          "internalType": "uint256",
          "name": "_championIndex",
          "type": "uint256"
        }
      ],
      "name": "addChampionToRoster",
      "outputs": [],
      "stateMutability": "nonpayable",
      "type": "function"
    },
    {
      "inputs": [
        {
          "internalType": "address",
          "name": "to",
          "type": "address"
        },
        {
          "internalType": "uint256",
          "name": "tokenId",
          "type": "uint256"
        }
      ],
      "name": "approve",
      "outputs": [],
      "stateMutability": "nonpayable",
      "type": "function"
    },
    {
      "inputs": [
        {
          "internalType": "address",
          "name": "owner",
          "type": "address"
        }
      ],
      "name": "balanceOf",
      "outputs": [
        {
          "internalType": "uint256",
          "name": "",
          "type": "uint256"
        }
      ],
      "stateMutability": "view",
      "type": "function"
    },
    {
      "inputs": [
        {
          "internalType": "uint256",
          "name": "tokenId",
          "type": "uint256"
        },
        {
          "internalType": "uint256",
          "name": "damage",
          "type": "uint256"
        }
      ],
      "name": "damageChampion",
      "outputs": [],
      "stateMutability": "nonpayable",
      "type": "function"
    },
    {
      "inputs": [
        {
          "internalType": "uint256",
          "name": "tokenId",
          "type": "uint256"
        }
      ],
      "name": "getApproved",
      "outputs": [
        {
          "internalType": "address",
          "name": "",
          "type": "address"
        }
      ],
      "stateMutability": "view",
      "type": "function"
    },
    {
      "inputs": [
        {
          "internalType": "uint256",
          "name": "recordId",
          "type": "uint256"
        }
      ],
      "name": "getNFTChampion",
      "outputs": [
        {
          "components": [
            {
              "internalType": "string",
              "name": "name",
              "type": "string"
            },
            {
              "internalType": "uint256",
              "name": "health",
              "type": "uint256"
            },
            {
              "internalType": "uint256",
              "name": "maxHealth",
              "type": "uint256"
            },
            {
              "internalType": "uint256",
              "name": "attackPower",
              "type": "uint256"
            },
            {
              "internalType": "uint256",
              "name": "healPower",
              "type": "uint256"
            },
            {
              "components": [
                {
                  "internalType": "string",
                  "name": "idle",
                  "type": "string"
                },
                {
                  "internalType": "string",
                  "name": "attack",
                  "type": "string"
                },
                {
                  "internalType": "string",
                  "name": "hurt",
                  "type": "string"
                },
                {
                  "internalType": "string",
                  "name": "dying",
                  "type": "string"
                },
                {
                  "internalType": "string",
                  "name": "dead",
                  "type": "string"
                }
              ],
              "internalType": "struct GifStatus",
              "name": "gifUris",
              "type": "tuple"
            }
          ],
          "internalType": "struct Champion",
          "name": "",
          "type": "tuple"
        }
      ],
      "stateMutability": "view",
      "type": "function"
    },
    {
      "inputs": [
        {
          "internalType": "address",
          "name": "sender",
          "type": "address"
        }
      ],
      "name": "getSelectedChampion",
      "outputs": [
        {
          "internalType": "uint256",
          "name": "",
          "type": "uint256"
        }
      ],
      "stateMutability": "view",
      "type": "function"
    },
    {
      "inputs": [],
      "name": "getUserRoster",
      "outputs": [
        {
          "internalType": "uint256[]",
          "name": "",
          "type": "uint256[]"
        }
      ],
      "stateMutability": "view",
      "type": "function"
    },
    {
      "inputs": [
        {
          "internalType": "uint256",
          "name": "tokenId",
          "type": "uint256"
        }
      ],
      "name": "healChampion",
      "outputs": [],
      "stateMutability": "nonpayable",
      "type": "function"
    },
    {
      "inputs": [
        {
          "internalType": "address",
          "name": "owner",
          "type": "address"
        },
        {
          "internalType": "address",
          "name": "operator",
          "type": "address"
        }
      ],
      "name": "isApprovedForAll",
      "outputs": [
        {
          "internalType": "bool",
          "name": "",
          "type": "bool"
        }
      ],
      "stateMutability": "view",
      "type": "function"
    },
    {
      "inputs": [],
      "name": "name",
      "outputs": [
        {
          "internalType": "string",
          "name": "",
          "type": "string"
        }
      ],
      "stateMutability": "view",
      "type": "function"
    },
    {
      "inputs": [],
      "name": "owner",
      "outputs": [
        {
          "internalType": "address",
          "name": "",
          "type": "address"
        }
      ],
      "stateMutability": "view",
      "type": "function"
    },
    {
      "inputs": [
        {
          "internalType": "uint256",
          "name": "tokenId",
          "type": "uint256"
        }
      ],
      "name": "ownerOf",
      "outputs": [
        {
          "internalType": "address",
          "name": "",
          "type": "address"
        }
      ],
      "stateMutability": "view",
      "type": "function"
    },
    {
      "inputs": [],
      "name": "renounceOwnership",
      "outputs": [],
      "stateMutability": "nonpayable",
      "type": "function"
    },
    {
      "inputs": [
        {
          "internalType": "address",
          "name": "from",
          "type": "address"
        },
        {
          "internalType": "address",
          "name": "to",
          "type": "address"
        },
        {
          "internalType": "uint256",
          "name": "tokenId",
          "type": "uint256"
        }
      ],
      "name": "safeTransferFrom",
      "outputs": [],
      "stateMutability": "nonpayable",
      "type": "function"
    },
    {
      "inputs": [
        {
          "internalType": "address",
          "name": "from",
          "type": "address"
        },
        {
          "internalType": "address",
          "name": "to",
          "type": "address"
        },
        {
          "internalType": "uint256",
          "name": "tokenId",
          "type": "uint256"
        },
        {
          "internalType": "bytes",
          "name": "_data",
          "type": "bytes"
        }
      ],
      "name": "safeTransferFrom",
      "outputs": [],
      "stateMutability": "nonpayable",
      "type": "function"
    },
    {
      "inputs": [
        {
          "internalType": "address",
          "name": "operator",
          "type": "address"
        },
        {
          "internalType": "bool",
          "name": "approved",
          "type": "bool"
        }
      ],
      "name": "setApprovalForAll",
      "outputs": [],
      "stateMutability": "nonpayable",
      "type": "function"
    },
    {
      "inputs": [
        {
          "internalType": "address",
          "name": "championFactoryAddress",
          "type": "address"
        }
      ],
      "name": "setChampionFactory",
      "outputs": [],
      "stateMutability": "nonpayable",
      "type": "function"
    },
    {
      "inputs": [
        {
          "internalType": "uint256",
          "name": "_rosterIndex",
          "type": "uint256"
        }
      ],
      "name": "setSelectChampion",
      "outputs": [],
      "stateMutability": "nonpayable",
      "type": "function"
    },
    {
      "inputs": [
        {
          "internalType": "bytes4",
          "name": "interfaceId",
          "type": "bytes4"
        }
      ],
      "name": "supportsInterface",
      "outputs": [
        {
          "internalType": "bool",
          "name": "",
          "type": "bool"
        }
      ],
      "stateMutability": "view",
      "type": "function"
    },
    {
      "inputs": [],
      "name": "symbol",
      "outputs": [
        {
          "internalType": "string",
          "name": "",
          "type": "string"
        }
      ],
      "stateMutability": "view",
      "type": "function"
    },
    {
      "inputs": [
        {
          "internalType": "uint256",
          "name": "_tokenId",
          "type": "uint256"
        }
      ],
      "name": "tokenURI",
      "outputs": [
        {
          "internalType": "string",
          "name": "",
          "type": "string"
        }
      ],
      "stateMutability": "view",
      "type": "function"
    },
    {
      "inputs": [
        {
          "internalType": "address",
          "name": "from",
          "type": "address"
        },
        {
          "internalType": "address",
          "name": "to",
          "type": "address"
        },
        {
          "internalType": "uint256",
          "name": "tokenId",
          "type": "uint256"
        }
      ],
      "name": "transferFrom",
      "outputs": [],
      "stateMutability": "nonpayable",
      "type": "function"
    },
    {
      "inputs": [
        {
          "internalType": "address",
          "name": "newOwner",
          "type": "address"
        }
      ],
      "name": "transferOwnership",
      "outputs": [],
      "stateMutability": "nonpayable",
      "type": "function"
    }
  ],
  "bytecode": "0x60806040523480156200001157600080fd5b50604080518082018252601181527026a6a79037b710313637b1b5b1b430b4b760791b60208083019182528351808501909452600384526226a6a160e91b908401528151919291620000669160009162000115565b5080516200007c90600190602084019062000115565b5050506200009962000093620000b660201b60201c565b620000ba565b620000b060086200010c60201b620014df1760201c565b620001f8565b3390565b600680546001600160a01b038381166001600160a01b0319831681179093556040519116919082907f8be0079c531659141344cd1fd0a4f28419497f9722a3daafe3b4186f6b6457e090600090a35050565b80546001019055565b8280546200012390620001bb565b90600052602060002090601f01602090048101928262000147576000855562000192565b82601f106200016257805160ff191683800117855562000192565b8280016001018555821562000192579182015b828111156200019257825182559160200191906001019062000175565b50620001a0929150620001a4565b5090565b5b80821115620001a05760008155600101620001a5565b600281046001821680620001d057607f821691505b60208210811415620001f257634e487b7160e01b600052602260045260246000fd5b50919050565b6130ab80620002086000396000f3fe608060405234801561001057600080fd5b50600436106101ae5760003560e01c80638137dcf2116100ee578063ba56957a11610097578063d6ff4a2e11610071578063d6ff4a2e14610377578063e985e9c51461039c578063f2fde38b146103af578063f866d86e146103c2576101ae565b8063ba56957a1461033e578063c87b56dd14610351578063cb22f50414610364576101ae565b806395d89b41116100c857806395d89b4114610310578063a22cb46514610318578063b88d4fde1461032b576101ae565b80638137dcf2146102e25780638da5cb5b146102f55780638f2a4750146102fd576101ae565b8063301d2c661161015b5780636352211e116101355780636352211e1461029257806370a08231146102a5578063715018a6146102c55780637a70d6ce146102cd576101ae565b8063301d2c661461024c57806331d214691461026c57806342842e0e1461027f576101ae565b8063095ea7b31161018c578063095ea7b31461021157806323b872dd146102265780632cce898514610239576101ae565b806301ffc9a7146101b357806306fdde03146101dc578063081812fc146101f1575b600080fd5b6101c66101c1366004612340565b6103d5565b6040516101d3919061283e565b60405180910390f35b6101e461044f565b6040516101d39190612849565b6102046101ff366004612378565b6104e1565b6040516101d391906127aa565b61022461021f3660046121f3565b61052d565b005b6102246102343660046120e0565b6105c5565b610224610247366004612378565b6105fd565b61025f61025a366004612378565b61066f565b6040516101d39190612ddd565b61022461027a366004612378565b610a3d565b61022461028d3660046120e0565b610a71565b6102046102a0366004612378565b610a8c565b6102b86102b336600461208d565b610ac1565b6040516101d39190612e3e565b610224610b05565b6102d5610b50565b6040516101d391906127fa565b6102246102f0366004612390565b610bb0565b610204610bdd565b6102b861030b36600461208d565b610bec565b6101e4610c07565b6102246103263660046121b9565b610c16565b61022461033936600461211b565b610c2c565b6102b861034c36600461208d565b610c6b565b6101e461035f366004612378565b610c7d565b61022461037236600461208d565b610d31565b61038a610385366004612378565b610d92565b6040516101d396959493929190612881565b6101c66103aa3660046120ae565b611132565b6102246103bd36600461208d565b611160565b6102246103d0366004612378565b6111d1565b60006001600160e01b031982167f80ac58cd00000000000000000000000000000000000000000000000000000000148061043857506001600160e01b031982167f5b5e139f00000000000000000000000000000000000000000000000000000000145b806104475750610447826114e8565b90505b919050565b60606000805461045e90612f3a565b80601f016020809104026020016040519081016040528092919081815260200182805461048a90612f3a565b80156104d75780601f106104ac576101008083540402835291602001916104d7565b820191906000526020600020905b8154815290600101906020018083116104ba57829003601f168201915b5050505050905090565b60006104ec8261151a565b6105115760405162461bcd60e51b815260040161050890612c45565b60405180910390fd5b506000908152600460205260409020546001600160a01b031690565b600061053882610a8c565b9050806001600160a01b0316836001600160a01b0316141561056c5760405162461bcd60e51b815260040161050890612d23565b806001600160a01b031661057e611537565b6001600160a01b0316148061059a575061059a816103aa611537565b6105b65760405162461bcd60e51b815260040161050890612af9565b6105c0838361153b565b505050565b6105d66105d0611537565b826115a9565b6105f25760405162461bcd60e51b815260040161050890612d80565b6105c083838361162e565b6000610607610b50565b905080516000141561062b5760405162461bcd60e51b815260040161050890612cc6565b600081838151811061064d57634e487b7160e01b600052603260045260246000fd5b602090810291909101810151336000908152600a909252604090912055505050565b610677611e4c565b6000828152600b602052604090819020815160c0810190925280548290829061069f90612f3a565b80601f01602080910402602001604051908101604052809291908181526020018280546106cb90612f3a565b80156107185780601f106106ed57610100808354040283529160200191610718565b820191906000526020600020905b8154815290600101906020018083116106fb57829003601f168201915b5050505050815260200160018201548152602001600282015481526020016003820154815260200160048201548152602001600582016040518060a001604052908160008201805461076990612f3a565b80601f016020809104026020016040519081016040528092919081815260200182805461079590612f3a565b80156107e25780601f106107b7576101008083540402835291602001916107e2565b820191906000526020600020905b8154815290600101906020018083116107c557829003601f168201915b505050505081526020016001820180546107fb90612f3a565b80601f016020809104026020016040519081016040528092919081815260200182805461082790612f3a565b80156108745780601f1061084957610100808354040283529160200191610874565b820191906000526020600020905b81548152906001019060200180831161085757829003601f168201915b5050505050815260200160028201805461088d90612f3a565b80601f01602080910402602001604051908101604052809291908181526020018280546108b990612f3a565b80156109065780601f106108db57610100808354040283529160200191610906565b820191906000526020600020905b8154815290600101906020018083116108e957829003601f168201915b5050505050815260200160038201805461091f90612f3a565b80601f016020809104026020016040519081016040528092919081815260200182805461094b90612f3a565b80156109985780601f1061096d57610100808354040283529160200191610998565b820191906000526020600020905b81548152906001019060200180831161097b57829003601f168201915b505050505081526020016004820180546109b190612f3a565b80601f01602080910402602001604051908101604052809291908181526020018280546109dd90612f3a565b8015610a2a5780601f106109ff57610100808354040283529160200191610a2a565b820191906000526020600020905b815481529060010190602001808311610a0d57829003601f168201915b5050509190925250505090525092915050565b6000818152600b60205260408120600481015460018201805492939192909190610a68908490612eac565b90915550505050565b6105c083838360405180602001604052806000815250610c2c565b6000818152600260205260408120546001600160a01b0316806104475760405162461bcd60e51b815260040161050890612bb3565b60006001600160a01b038216610ae95760405162461bcd60e51b815260040161050890612b56565b506001600160a01b031660009081526003602052604090205490565b610b0d611537565b6001600160a01b0316610b1e610bdd565b6001600160a01b031614610b445760405162461bcd60e51b815260040161050890612c91565b610b4e6000611761565b565b336000908152600960209081526040918290208054835181840281018401909452808452606093928301828280156104d757602002820191906000526020600020905b815481526020019060010190808311610b93575050505050905090565b6000828152600b6020526040812060018101805491928492610bd3908490612ef7565b9091555050505050565b6006546001600160a01b031690565b6001600160a01b03166000908152600a602052604090205490565b60606001805461045e90612f3a565b610c28610c21611537565b83836117b3565b5050565b610c3d610c37611537565b836115a9565b610c595760405162461bcd60e51b815260040161050890612d80565b610c6584848484611856565b50505050565b600a6020526000908152604090205481565b6000818152600b60205260408120600181015460609290610c9d90611889565b90506000610cae8360020154611889565b90506000610cbf8460030154611889565b90506000610d0085610cd089611889565b604051610cec92919060058a01908990899089906020016125b7565b6040516020818303038152906040526119d8565b9050600081604051602001610d159190612765565b60408051808303601f1901815291905298975050505050505050565b610d39611537565b6001600160a01b0316610d4a610bdd565b6001600160a01b031614610d705760405162461bcd60e51b815260040161050890612c91565b600780546001600160a01b0319166001600160a01b0392909216919091179055565b600b60205260009081526040902080548190610dad90612f3a565b80601f0160208091040260200160405190810160405280929190818152602001828054610dd990612f3a565b8015610e265780601f10610dfb57610100808354040283529160200191610e26565b820191906000526020600020905b815481529060010190602001808311610e0957829003601f168201915b505050505090806001015490806002015490806003015490806004015490806005016040518060a0016040529081600082018054610e6390612f3a565b80601f0160208091040260200160405190810160405280929190818152602001828054610e8f90612f3a565b8015610edc5780601f10610eb157610100808354040283529160200191610edc565b820191906000526020600020905b815481529060010190602001808311610ebf57829003601f168201915b50505050508152602001600182018054610ef590612f3a565b80601f0160208091040260200160405190810160405280929190818152602001828054610f2190612f3a565b8015610f6e5780601f10610f4357610100808354040283529160200191610f6e565b820191906000526020600020905b815481529060010190602001808311610f5157829003601f168201915b50505050508152602001600282018054610f8790612f3a565b80601f0160208091040260200160405190810160405280929190818152602001828054610fb390612f3a565b80156110005780601f10610fd557610100808354040283529160200191611000565b820191906000526020600020905b815481529060010190602001808311610fe357829003601f168201915b5050505050815260200160038201805461101990612f3a565b80601f016020809104026020016040519081016040528092919081815260200182805461104590612f3a565b80156110925780601f1061106757610100808354040283529160200191611092565b820191906000526020600020905b81548152906001019060200180831161107557829003601f168201915b505050505081526020016004820180546110ab90612f3a565b80601f01602080910402602001604051908101604052809291908181526020018280546110d790612f3a565b80156111245780601f106110f957610100808354040283529160200191611124565b820191906000526020600020905b81548152906001019060200180831161110757829003601f168201915b505050505081525050905086565b6001600160a01b03918216600090815260056020908152604080832093909416825291909152205460ff1690565b611168611537565b6001600160a01b0316611179610bdd565b6001600160a01b03161461119f5760405162461bcd60e51b815260040161050890612c91565b6001600160a01b0381166111c55760405162461bcd60e51b815260040161050890612928565b6111ce81611761565b50565b60006111dd6008611b3b565b905061120260405180606001604052806039815260200161303d603991398383611b3f565b61120c3382611bb4565b336000908152600960209081526040808320805460018101825590845291832090910183905560075481517f84e859b300000000000000000000000000000000000000000000000000000000815291516001600160a01b03909116916384e859b39160048083019286929190829003018186803b15801561128c57600080fd5b505afa1580156112a0573d6000803e3d6000fd5b505050506040513d6000823e601f3d908101601f191682016040526112c8919081019061221c565b90506040518060c001604052808285815181106112f557634e487b7160e01b600052603260045260246000fd5b602002602001015160000151815260200182858151811061132657634e487b7160e01b600052603260045260246000fd5b602002602001015160200151815260200182858151811061135757634e487b7160e01b600052603260045260246000fd5b602002602001015160400151815260200182858151811061138857634e487b7160e01b600052603260045260246000fd5b60200260200101516060015181526020018285815181106113b957634e487b7160e01b600052603260045260246000fd5b60200260200101516080015181526020018285815181106113ea57634e487b7160e01b600052603260045260246000fd5b60209081029190910181015160a001519091526000848152600b82526040902082518051919261141f92849290910190611e87565b50602082810151600183015560408301516002830155606083015160038301556080830151600483015560a083015180518051919260058501926114669284920190611e87565b50602082810151805161147f9260018501920190611e87565b506040820151805161149b916002840191602090910190611e87565b50606082015180516114b7916003840191602090910190611e87565b50608082015180516114d3916004840191602090910190611e87565b5050509050506105c060085b80546001019055565b6001600160e01b031981167f01ffc9a70000000000000000000000000000000000000000000000000000000014919050565b6000908152600260205260409020546001600160a01b0316151590565b3390565b600081815260046020526040902080546001600160a01b0319166001600160a01b038416908117909155819061157082610a8c565b6001600160a01b03167f8c5be1e5ebec7d5bd14f71427d1e84f3dd0314c0f7b2291e5b200ac8c7c3b92560405160405180910390a45050565b60006115b48261151a565b6115d05760405162461bcd60e51b815260040161050890612aad565b60006115db83610a8c565b9050806001600160a01b0316846001600160a01b031614806116165750836001600160a01b031661160b846104e1565b6001600160a01b0316145b8061162657506116268185611132565b949350505050565b826001600160a01b031661164182610a8c565b6001600160a01b0316146116675760405162461bcd60e51b815260040161050890612985565b6001600160a01b03821661168d5760405162461bcd60e51b815260040161050890612a19565b6116988383836105c0565b6116a360008261153b565b6001600160a01b03831660009081526003602052604081208054600192906116cc908490612ef7565b90915550506001600160a01b03821660009081526003602052604081208054600192906116fa908490612eac565b909155505060008181526002602052604080822080546001600160a01b0319166001600160a01b0386811691821790925591518493918716917fddf252ad1be2c89b69c2b068fc378daa952ba7f163c4a11628f55a4df523b3ef91a46105c08383836105c0565b600680546001600160a01b038381166001600160a01b0319831681179093556040519116919082907f8be0079c531659141344cd1fd0a4f28419497f9722a3daafe3b4186f6b6457e090600090a35050565b816001600160a01b0316836001600160a01b031614156117e55760405162461bcd60e51b815260040161050890612a76565b6001600160a01b0383811660008181526005602090815260408083209487168084529490915290819020805460ff1916851515179055517f17307eab39ab6107e8899845ad3d59bd9653f200f220920489ca2b5937696c319061184990859061283e565b60405180910390a3505050565b61186184848461162e565b61186d84848484611bce565b610c655760405162461bcd60e51b8152600401610508906128cb565b6060816118ca575060408051808201909152600181527f3000000000000000000000000000000000000000000000000000000000000000602082015261044a565b8160005b81156118f457806118de81612f75565b91506118ed9050600a83612ec4565b91506118ce565b60008167ffffffffffffffff81111561191d57634e487b7160e01b600052604160045260246000fd5b6040519080825280601f01601f191660200182016040528015611947576020820181803683370190505b5090505b84156116265761195c600183612ef7565b9150611969600a86612f90565b611974906030612eac565b60f81b81838151811061199757634e487b7160e01b600052603260045260246000fd5b60200101907effffffffffffffffffffffffffffffffffffffffffffffffffffffffffffff1916908160001a9053506119d1600a86612ec4565b945061194b565b60608151600014156119f9575060408051602081019091526000815261044a565b6000604051806060016040528060408152602001612ffd6040913990506000600384516002611a289190612eac565b611a329190612ec4565b611a3d906004612ed8565b67ffffffffffffffff811115611a6357634e487b7160e01b600052604160045260246000fd5b6040519080825280601f01601f191660200182016040528015611a8d576020820181803683370190505b509050600182016020820185865187015b80821015611af9576003820191508151603f8160121c168501518453600184019350603f81600c1c168501518453600184019350603f8160061c168501518453600184019350603f8116850151845350600183019250611a9e565b5050600386510660018114611b155760028114611b2857611b30565b603d6001830353603d6002830353611b30565b603d60018303535b509195945050505050565b5490565b6105c0838383604051602401611b579392919061285c565b60408051601f198184030181529190526020810180517bffffffffffffffffffffffffffffffffffffffffffffffffffffffff167f969cdd0300000000000000000000000000000000000000000000000000000000179052611d02565b610c28828260405180602001604052806000815250611d23565b6000611be2846001600160a01b0316611d56565b15611cf757836001600160a01b031663150b7a02611bfe611537565b8786866040518563ffffffff1660e01b8152600401611c2094939291906127be565b602060405180830381600087803b158015611c3a57600080fd5b505af1925050508015611c6a575060408051601f3d908101601f19168201909252611c679181019061235c565b60015b611cc4573d808015611c98576040519150601f19603f3d011682016040523d82523d6000602084013e611c9d565b606091505b508051611cbc5760405162461bcd60e51b8152600401610508906128cb565b805181602001fd5b6001600160e01b0319167f150b7a0200000000000000000000000000000000000000000000000000000000149050611626565b506001949350505050565b80516a636f6e736f6c652e6c6f67602083016000808483855afa5050505050565b611d2d8383611d65565b611d3a6000848484611bce565b6105c05760405162461bcd60e51b8152600401610508906128cb565b6001600160a01b03163b151590565b6001600160a01b038216611d8b5760405162461bcd60e51b815260040161050890612c10565b611d948161151a565b15611db15760405162461bcd60e51b8152600401610508906129e2565b611dbd600083836105c0565b6001600160a01b0382166000908152600360205260408120805460019290611de6908490612eac565b909155505060008181526002602052604080822080546001600160a01b0319166001600160a01b03861690811790915590518392907fddf252ad1be2c89b69c2b068fc378daa952ba7f163c4a11628f55a4df523b3ef908290a4610c28600083836105c0565b6040518060c001604052806060815260200160008152602001600081526020016000815260200160008152602001611e82611f0b565b905290565b828054611e9390612f3a565b90600052602060002090601f016020900481019282611eb55760008555611efb565b82601f10611ece57805160ff1916838001178555611efb565b82800160010185558215611efb579182015b82811115611efb578251825591602001919060010190611ee0565b50611f07929150611f3a565b5090565b6040518060a0016040528060608152602001606081526020016060815260200160608152602001606081525090565b5b80821115611f075760008155600101611f3b565b80356001600160a01b038116811461044a57600080fd5b600082601f830112611f76578081fd5b8151611f89611f8482612e78565b612e47565b818152846020838601011115611f9d578283fd5b611626826020830160208701612f0e565b600060a08284031215611fbf578081fd5b611fc960a0612e47565b9050815167ffffffffffffffff80821115611fe357600080fd5b611fef85838601611f66565b8352602084015191508082111561200557600080fd5b61201185838601611f66565b6020840152604084015191508082111561202a57600080fd5b61203685838601611f66565b6040840152606084015191508082111561204f57600080fd5b61205b85838601611f66565b6060840152608084015191508082111561207457600080fd5b5061208184828501611f66565b60808301525092915050565b60006020828403121561209e578081fd5b6120a782611f4f565b9392505050565b600080604083850312156120c0578081fd5b6120c983611f4f565b91506120d760208401611f4f565b90509250929050565b6000806000606084860312156120f4578081fd5b6120fd84611f4f565b925061210b60208501611f4f565b9150604084013590509250925092565b60008060008060808587031215612130578081fd5b61213985611f4f565b935061214760208601611f4f565b925060408501359150606085013567ffffffffffffffff811115612169578182fd5b8501601f81018713612179578182fd5b8035612187611f8482612e78565b81815288602083850101111561219b578384fd5b81602084016020830137908101602001929092525092959194509250565b600080604083850312156121cb578182fd5b6121d483611f4f565b9150602083013580151581146121e8578182fd5b809150509250929050565b60008060408385031215612205578182fd5b61220e83611f4f565b946020939093013593505050565b6000602080838503121561222e578182fd5b825167ffffffffffffffff80821115612245578384fd5b818501915085601f830112612258578384fd5b81518181111561226a5761226a612fd0565b6122778485830201612e47565b81815284810190848601875b84811015612331578151870160c080601f19838f030112156122a3578a8bfd5b6122ac81612e47565b8a830151898111156122bc578c8dfd5b6122ca8f8d83870101611f66565b8252506040808401518c830152606080850151828401526080915081850151818401525060a084015181830152508183015191508882111561230a578b8cfd5b6123188e8c84860101611fae565b60a0820152865250509287019290870190600101612283565b50909998505050505050505050565b600060208284031215612351578081fd5b81356120a781612fe6565b60006020828403121561236d578081fd5b81516120a781612fe6565b600060208284031215612389578081fd5b5035919050565b600080604083850312156123a2578182fd5b50508035926020909101359150565b600081518084526123c9816020860160208601612f0e565b601f01601f19169290920160200192915050565b600081516123ef818560208601612f0e565b9290920192915050565b80546000906002810460018083168061241357607f831692505b602080841082141561243357634e487b7160e01b86526022600452602486fd5b818015612447576001811461245857612485565b60ff19861689528489019650612485565b61246188612ea0565b60005b8681101561247d5781548b820152908501908301612464565b505084890196505b50505050505092915050565b7f2c20226d61785f76616c7565223a0000000000000000000000000000000000008152600e0190565b7f7d205d7d00000000000000000000000000000000000000000000000000000000815260040190565b7f7d2c207b202274726169745f74797065223a202241747461636b2044616d616781527f65222c202276616c7565223a20000000000000000000000000000000000000006020820152602d0190565b6000815160a0845261254760a08501826123b1565b90506020830151848203602086015261256082826123b1565b9150506040830151848203604086015261257a82826123b1565b9150506060830151848203606086015261259482826123b1565b915050608083015184820360808601526125ae82826123b1565b95945050505050565b60007f7b226e616d65223a20220000000000000000000000000000000000000000000082526125e9600a8301896123f9565b7f202d2d204e465420233a200000000000000000000000000000000000000000008152875161261f81600b840160208c01612f0e565b7f222c20226465736372697074696f6e223a20225468697320697320616e204e46600b92909101918201527f542074686174206c6574732070656f706c6520706c617920696e207468652067602b8201527f616d65204d657461766572736520536c6179657221222c2022696d616765223a604b8201527f2022000000000000000000000000000000000000000000000000000000000000606b8201526126c9606d8201886123f9565b90507f222c202261747472696275746573223a205b207b202274726169745f7479706581527f223a20224865616c746820506f696e7473222c202276616c7565223a200000006020820152855161272781603d840160208a01612f0e565b61275761275261274c612747612741603d86880101612491565b8a6123dd565b6124e3565b876123dd565b6124ba565b9a9950505050505050505050565b60007f646174613a6170706c69636174696f6e2f6a736f6e3b6261736536342c0000008252825161279d81601d850160208701612f0e565b91909101601d0192915050565b6001600160a01b0391909116815260200190565b60006001600160a01b038087168352808616602084015250836040830152608060608301526127f060808301846123b1565b9695505050505050565b6020808252825182820181905260009190848201906040850190845b8181101561283257835183529284019291840191600101612816565b50909695505050505050565b901515815260200190565b6000602082526120a760208301846123b1565b60006060825261286f60608301866123b1565b60208301949094525060400152919050565b600060c0825261289460c08301896123b1565b87602084015286604084015285606084015284608084015282810360a08401526128be8185612532565b9998505050505050505050565b60208082526032908201527f4552433732313a207472616e7366657220746f206e6f6e20455243373231526560408201527f63656976657220696d706c656d656e7465720000000000000000000000000000606082015260800190565b60208082526026908201527f4f776e61626c653a206e6577206f776e657220697320746865207a65726f206160408201527f6464726573730000000000000000000000000000000000000000000000000000606082015260800190565b60208082526025908201527f4552433732313a207472616e736665722066726f6d20696e636f72726563742060408201527f6f776e6572000000000000000000000000000000000000000000000000000000606082015260800190565b6020808252601c908201527f4552433732313a20746f6b656e20616c7265616479206d696e74656400000000604082015260600190565b60208082526024908201527f4552433732313a207472616e7366657220746f20746865207a65726f2061646460408201527f7265737300000000000000000000000000000000000000000000000000000000606082015260800190565b60208082526019908201527f4552433732313a20617070726f766520746f2063616c6c657200000000000000604082015260600190565b6020808252602c908201527f4552433732313a206f70657261746f7220717565727920666f72206e6f6e657860408201526b34b9ba32b73a103a37b5b2b760a11b606082015260800190565b60208082526038908201527f4552433732313a20617070726f76652063616c6c6572206973206e6f74206f7760408201527f6e6572206e6f7220617070726f76656420666f7220616c6c0000000000000000606082015260800190565b6020808252602a908201527f4552433732313a2062616c616e636520717565727920666f7220746865207a6560408201527f726f206164647265737300000000000000000000000000000000000000000000606082015260800190565b60208082526029908201527f4552433732313a206f776e657220717565727920666f72206e6f6e657869737460408201527f656e7420746f6b656e0000000000000000000000000000000000000000000000606082015260800190565b6020808252818101527f4552433732313a206d696e7420746f20746865207a65726f2061646472657373604082015260600190565b6020808252602c908201527f4552433732313a20617070726f76656420717565727920666f72206e6f6e657860408201526b34b9ba32b73a103a37b5b2b760a11b606082015260800190565b6020808252818101527f4f776e61626c653a2063616c6c6572206973206e6f7420746865206f776e6572604082015260600190565b6020808252602d908201527f55736572206d7573742068617665206120726f7374657220746f2073656c656360408201527f742061206368616d70696f6e2e00000000000000000000000000000000000000606082015260800190565b60208082526021908201527f4552433732313a20617070726f76616c20746f2063757272656e74206f776e6560408201527f7200000000000000000000000000000000000000000000000000000000000000606082015260800190565b60208082526031908201527f4552433732313a207472616e736665722063616c6c6572206973206e6f74206f60408201527f776e6572206e6f7220617070726f766564000000000000000000000000000000606082015260800190565b600060208252825160c06020840152612df960e08401826123b1565b9050602084015160408401526040840151606084015260608401516080840152608084015160a084015260a0840151601f198483030160c08501526125ae8282612532565b90815260200190565b604051601f8201601f1916810167ffffffffffffffff81118282101715612e7057612e70612fd0565b604052919050565b600067ffffffffffffffff821115612e9257612e92612fd0565b50601f01601f191660200190565b60009081526020902090565b60008219821115612ebf57612ebf612fa4565b500190565b600082612ed357612ed3612fba565b500490565b6000816000190483118215151615612ef257612ef2612fa4565b500290565b600082821015612f0957612f09612fa4565b500390565b60005b83811015612f29578181015183820152602001612f11565b83811115610c655750506000910152565b600281046001821680612f4e57607f821691505b60208210811415612f6f57634e487b7160e01b600052602260045260246000fd5b50919050565b6000600019821415612f8957612f89612fa4565b5060010190565b600082612f9f57612f9f612fba565b500690565b634e487b7160e01b600052601160045260246000fd5b634e487b7160e01b600052601260045260246000fd5b634e487b7160e01b600052604160045260246000fd5b6001600160e01b0319811681146111ce57600080fdfe4142434445464748494a4b4c4d4e4f505152535455565758595a6162636465666768696a6b6c6d6e6f707172737475767778797a303132333435363738392b2f5265676973746572696e67206368616d70696f6e6964202573206f6e2074686520636f6e7472616374207769746820746f6b656e4944202564a264697066735822122057bd9010688bebff0aaaa918b105b8e5152055fc884dca7f09e3e0cd2c59027764736f6c63430008010033",
  "linkReferences": {},
  "deployedLinkReferences": {}
}